:100000002EC052C093C492C44FC04EC04DC04CC00D
:100010004BC04AC049C040C447C046C045C044C0A8
:1000200043C000003A003700000001020304000052
:10003000000000000000003900360000003B0038DE
:100040000002020201010101010101010201020499
:1000500080402010080402010800F0061707112450
:100060001FBECFE5D2E0DEBFCDBF10E0A0E6B0E01E
:10007000EAECF0E102C005900D92AE37B107D9F776
:1000800021E0AEE7B0E001C01D92A833B207E1F76E
:1000900010E0CEE2D0E003C02197FE0104D8CD32BB
:1000A000D107D1F7BBD405C8ABCF3FB7F894809147
:1000B0000E0190910F01A0911001B091110122B792
:1000C00008B600FE05C02F3F19F00196A11DB11D15
:1000D0003FBFBA2FA92F982F8827BC01CD01620FEF
:1000E000711D811D911D43E0660F771F881F991FA9
:1000F0004A95D1F70895CF92DF92EF92FF92CF9376
:10010000DF936B017C01D1DFEB01C114D104E10469
:10011000F10441F412C081E0C81AD108E108F108E5
:10012000C851DC4FC2DF6C1B7D0B683E734068F327
:10013000C114D104E104F10471F7DF91CF91FF9074
:10014000EF90DF90CF9008952FB7F89460910A0157
:1001500070910B0180910C0190910D012FBF0895BA
:100160000F931F938091120190911301DC01ED9187
:10017000FC910480F581E02D0995892B09F4D5C007
:1001800060E070E0CB01B7DF209130018091120177
:1001900090911301DC01ED91FC910680F781E02D37
:1001A00021110BC0099580931C018E37D9F68091DF
:1001B00030018F5F80933001D5CF09959091300148
:1001C000E92FF0E0EE5EFE4F82879230B9F0993071
:1001D000D9F09130A9F48F3F99F01092300181E06D
:1001E00080933201109235011092340180933601D0
:1001F0001092370180E01F910F910895863069F7C2
:100200009F5F90933001AECF8F3E39F720911E0152
:1002100080911D01280F3327331FE0911F01C90171
:100220008E0F911D20912001280F392F311D4091F3
:10023000210150E0240F351F8091220190E0609150
:10024000230170E0762F6627F09124016F0F711D56
:10025000280F391F3195219531096217730709F06D
:10026000BCCF10923001E13419F4109237012EC046
:10027000E0933301542F4427840F951F9093350149
:1002800080933401EA53E63108F045C0F0E0E65BC4
:10029000FE4F09942CC033C03CC012C03AC019C0F4
:1002A00036C039C036C035C034C033C032C031C0AA
:1002B00030C02FC030C02DC02CC02BC02AC029C0D8
:1002C00085E08093320181E0809336018091360190
:1002D00092CF80FF02C089E0F4CF81FF02C084E0AA
:1002E000F0CF83709927892B89F38AE0EACF80FFCA
:1002F00002C087E0E6CF81FFE9CF82E0E2CF80FF56
:1003000002C088E0DECF81FFE1CF83E0DACF86E074
:10031000D8CF8BE0D6CF81E08093320110923501A7
:100320001092340180933601A0CF80913701882349
:1003300069F20ADF00911401109115012091160154
:1003400030911701601B710B820B930B0091180108
:100350001091190120911A0130911B01601771074A
:100360008207930708F4B2CF109230011092320145
:10037000109235011092340181E038CF8093290129
:10038000272F30E070932B0160932C0140912801BE
:1003900090912701490F5527551F840F952F911DC7
:1003A00040912A01840F911D820F931F680F792FAE
:1003B000711D71956195710970932D0160932E01E6
:1003C000442351F080913701882331F060E070E0E0
:1003D000CB0191DEC5DEF6CF809112019091130121
:1003E000DC01ED91FC910280F381E02D4AE050E0C8
:1003F00066E271E00995A8DE60931401709315011F
:10040000809316019093170180912A0191E0811148
:1004100001C090E090933701811105C06AE070E05F
:1004200080E090E068CE0895CF92DF92EF92FF9245
:100430000F931F93CF93DF936C01EB017B01E40ECD
:10044000F51E10E000E0CE15DF0561F06991D601E0
:10045000ED91FC910190F081E02DC6010995080F06
:10046000191FF1CFC801DF91CF911F910F91FF901C
:10047000EF90DF90CF9008952091C0003091C1009F
:100480002817390781F49091BF008091BE0098171A
:1004900051F0E091BF00F0E0E258FF4F8081082E5C
:1004A000000C990B08958FEF9FEF08952091C000E5
:1004B0003091C1002817390739F48FB7F89410929A
:1004C000BE001092BF008FBF0895EF92FF920F936E
:1004D0001F93CF93DF93DC015C96ED90FC905D97CA
:1004E000E114F10479F481E090E013969C938E93EB
:1004F000129790E080E0DF91CF911F910F91FF90D4
:10050000EF9008955196ED91FC91529750968C91F1
:100510005097982F90950FB75E962C915E97122F5B
:10052000127021FD6095F8942081112319F1282B78
:100530002083E7012197F1F728E0462F50E0308132
:1005400060FF1AC0382B3083E7012197F1F7BA0119
:1005500075956795215089F7112381F08081892352
:1005600080830FBF5C968D919C910197F1F781E09C
:1005700090E0C1CF2923DCCF3923E5CF9081892BAF
:10058000EFCF2091C0003091C1002817390769F4DE
:100590008091BE002091BF0090E0805C9F4F821B45
:1005A000910960E470E058D5089590E080E00895E6
:1005B0002091C0003091C10028173907B9F49091FB
:1005C000BF008091BE00981789F0E091BF00F0E075
:1005D000E258FF4F80812091BF0030E02F5F3F4FF6
:1005E0002F7333272093BF0090E008958FEF9FEF84
:1005F0000895E091C000F091C100E817F90769F48F
:10060000A389B4899C918589809589238C931092C4
:10061000C1001092C00081E0089580E00895CF935A
:10062000DF93EC018A8D9B8D892BF9F08091C000BE
:100630009091C1008C179D07C1F0009709F0D9DF98
:100640008E8D8E7F8E8F1092BE001092BF00D09341
:10065000C100C093C000EB89FC8980819D89892BF2
:10066000808381E0DF91CF91089580E0FBCFCF932D
:10067000DF93C82F811101C0CAE084EC90E0CFDF86
:10068000D0E08091C2009091C300C817D90739F01B
:1006900060E07091E3006C2B7D2B8FE06FDED093D8
:1006A000C300C093C2008AEE90E0DF91CF91B7CF34
:1006B00090E0FC01E35BFF4F2491FC01EF5BFF4FF7
:1006C000E491EE2371F0F0E0EE0FFF1FEB5CFF4FC3
:1006D000A591B491EC91E22381E090E021F480E0D7
:1006E000089580E090E0089590E0FC01E85DFF4F00
:1006F0003491FC01E35BFF4F2491FC01EF5BFF4F62
:10070000E491EE23B9F0332329F03130A1F480B71E
:100710008F7780BFF0E0EE0FFF1FE55CFF4FA591E4
:10072000B4918FB7611117C0F894EC9120952E23E6
:100730002C938FBF0895323019F480B78F7DE9CFA5
:10074000333021F48FB58F778FBDE4CF343011F77C
:100750008FB58F7DF9CFF894EC912E2BE9CFCF9305
:10076000DF9390E0FC01E35BFF4F24918F5B9F4F91
:10077000FC0184918823C9F090E0880F991FFC0147
:10078000EE5DFF4FA591B491FC01E55CFF4FC59173
:10079000D49161110DC09FB7F8948C91209582235C
:1007A0008C938881282328839FBFDF91CF91089560
:1007B000623051F49FB7F8943C91822F8095832347
:1007C0008C93E8812E2BEFCF8FB7F894EC912E2BE2
:1007D0002C938FBFEACF0F931F93CF93DF93EC013E
:1007E000162F042F1B821A8288EE93E0A0E0B0E05F
:1007F0008C839D83AE83BF8382E790E09983888357
:100800001F8A1E8A198E188E1B8E1A8E1D8E1C8EA4
:100810006E8D6E7F6D7F6E8F6695617081E068274B
:10082000842F62DF61E0802F9ADF802F90E0FC014F
:10083000E35BFF4FE491E88BFC01EF5BFF4FE4913A
:10084000F0E0EE0FFF1FE55CFF4F859194919A8BCE
:10085000898B60E0812F83DF8E8D81FD03C061E095
:10086000812F42DF1C87812F90E0FC01E35BFF4F6B
:10087000E491ED87FC01EF5BFF4FE491F0E0EE0FB8
:10088000FF1FEB5CFF4F859194919F878E87DF91CF
:10089000CF911F910F9108951F920F920FB60F9253
:1008A00011242F933F938F939F93AF93BF93809186
:1008B0000A0190910B01A0910C01B0910D013091B2
:1008C000090126E0230F2D3768F129E8230F03964D
:1008D000A11DB11D2093090180930A0190930B0182
:1008E000A0930C01B0930D0180910E0190910F0126
:1008F000A0911001B09111010196A11DB11D80932D
:100900000E0190930F01A0931001B0931101BF91BC
:10091000AF919F918F913F912F910F900FBE0F90AC
:100920001F9018950296A11DB11DD4CF1F920F9252
:100930000FB60F9211242F933F934F935F936F93B2
:100940007F938F939F93AF93BF93EF93FF93E09128
:10095000C000F091C100309749F0A685B785858524
:10096000968D91FF14C09C918923A1F4FF91EF9182
:10097000BF91AF919F918F917F916F915F914F91B7
:100980003F912F910F900FBE0F901F9018959C9143
:10099000892361F7A389B4899C91858980958923EE
:1009A0008C93868997890197F1F7608D718DA68563
:1009B000B785558538E020E0CB010197F1F7822F0C
:1009C00090E095958795282F4C91452309F0206854
:1009D000315091F7868D81FD20958091BE0090E089
:1009E00001968F7399273091BF00381799F0A09125
:1009F000BE00B0E0A258BF4F2C938093BE00828D02
:100A0000938D0197F1F7A389B4898C919589892BEE
:100A10008C93ACCF868D8160868FF1CF83E080BFD1
:100A200083BF789499B7916099BF91E09FBD8EBDC7
:100A300086E886B990E080E0B0D281BF10920501CF
:100A40001092040110920301109202011092010110
:100A5000109200018DE390E09093070180930601CE
:100A60009091F6009C3008F041C02DE030E03093CA
:100A70000101209300012BE330E030930301209328
:100A8000020124E230E030930501209304018BB78A
:100A90002DEF290F283008F0B7C020E1822B8BBF43
:100AA0008DEF890F22E330E0883040F0933020F062
:100AB00030E020E09B3011F420E430E03093FE0081
:100AC0002093FD00883008F0A1C02AE030E0291B07
:100AD000310981E001C0880F2A95EAF78093FF0071
:100AE00080910601909107010197F1F78AEE90E05D
:100AF00096DD1092DF001092DE001092DD00109261
:100B0000DC001092DB001092DA008DEC90E0909304
:100B1000E1008093E0009091D0009C3008F041C04B
:100B200025E530E03093DB002093DA002BEC30E059
:100B30003093DD002093DC0020E930E03093DF00CB
:100B40002093DE008BB72DEF290F283008F068C006
:100B500020E1822B8BBF8DEF890F22E330E08830BC
:100B600040F0933020F030E020E09B3011F420E49E
:100B700030E03093D8002093D700883008F052C07E
:100B80002AE030E0291B310981E001C0880F2A9555
:100B9000EAF78093D9008091E0009091E1000197FD
:100BA000F1F784EC90E03BDD61E081E0D8DD60E0CE
:100BB00081E09ADD62E083E0D2DD62E088E0CFDDB3
:100BC00062E089E0CCDD62E08AE0C9DD83E070DDCF
:100BD0007C0188E06DDD8C0189E06ADDEC018AE052
:100BE00067DD21E0E216F10439F50130110509F065
:100BF0006EC0C130D10509F076C08130910509F091
:100C00007BC0C1E0D0E023C020E248CF88E09B3029
:100C100009F464CF81E001C0880F9A95EAF75ECFAE
:100C200020E297CF88E09B3009F4B3CF81E001C088
:100C3000880F9A95EAF7ADCFEF2819F70130110523
:100C400001F72197F1F6C2E0D0E00197D1F6D093F9
:100C5000E400C093E30010E000E061E081E044DDE7
:100C600068EC70E080E090E046DA60E081E03CDD36
:100C700068EC70E080E090E03EDA0F5F1F4F0C17E9
:100C80001D075CF384EC90E0CADC84EC90E0909368
:100C900013018093120181E080932A0170E060E0EB
:100CA0008CE06CDB51DA6B017C015ADA81112AC0CD
:100CB0004BDA6C197D098E099F09613D77408105EA
:100CC000910500F560E070E0CB0115DAEECF012B65
:100CD00009F097CF219709F094CFC3E0D0E00197B6
:100CE00009F08FCFB4CFCD2B09F08BCFC4E0D0E08B
:100CF000019709F086CFABCFC5E0D0E0892B09F092
:100D000080CFA5CF68EC70E080E090E0F4D910923D
:100D1000360164E170E086E031DB70E060E089E19B
:100D20002DDB89E0C82ED12CE12CF12C8AEE90E04D
:100D300076DC8AEE90E025DC892BC1F38AEE90E028
:100D400037DC8F3A21F41092E9001092E8002091EC
:100D5000E8003091E900A9014F5F5F4F5093E9002F
:100D60004093E8002B513F4FF901808343305105F8
:100D7000E9F68091E5008F3A69F48091E6008F36BC
:100D800049F48091E3009091E400059711F180917E
:100D9000E7006DDC8091E5008F3AB1F48091E600C8
:100DA000833091F48091E700883171F484EC90E015
:100DB00036DC70E060E08EE0E1DA1092C300109261
:100DC000C2008AEE90E02BDC1092E9001092E8005D
:100DD000ADCF8CD0A701960101D181E0860FD9CF8C
:100DE000CF93DF9346E067E084EC90E0F4DC44E0EE
:100DF00065E08AEE90E0EFDCC2E1D1E084EF91E0C3
:100E0000A0E0B0E08E839F83A887B9878AE0E4E6FC
:100E1000F0E0A6E2B1E001900D928A95E1F71E8E16
:100E200082E08F8F1CA21DA2DF91CF918DC9CF933D
:100E3000DF93C2E7D0E0D093EB00C093EA008AEEE4
:100E400090E0D7DBD093C500C093C40084EC90E061
:100E5000DF91CF91CECB8F929F92AF92BF92CF92E4
:100E6000DF92EF92FF92CF93DF93EC01688179815B
:100E70008A819B81611571058105910521F464E2E8
:100E800079ED8BE597E02DE133EF41E050E0A6D01E
:100E900049015A0127EA31E440E050E086D06B0175
:100EA0007C012CEE34EF4FEF5FEFC501B4017DD034
:100EB000C60ED71EE81EF91EF7FE06C081E0C81A4E
:100EC000D108E10880E8F80AC882D982EA82FB8268
:100ED000C701B6019F77DF91CF91FF90EF90DF9030
:100EE000CF90BF90AF909F908F9008958F929F92D8
:100EF000AF92BF92CF92DF92EF92FF92609160002B
:100F0000709161008091620090916300611571059C
:100F10008105910521F464E279ED8BE597E02DE1FF
:100F200033EF41E050E05AD049015A0127EA31E459
:100F300040E050E03AD06B017C012CEE34EF4FEFF3
:100F40005FEFC501B40131D0C60ED71EE81EF91EF1
:100F5000F7FE06C081E0C81AD108E10880E8F80A67
:100F6000C0926000D0926100E0926200F092630053
:100F7000C701B6019F77FF90EF90DF90CF90BF90B1
:100F8000AF909F908F900895609360007093610080
:100F900080936200909363000895E199FECF9FBB18
:100FA0008EBBE09A99278DB30895EE27FF27AA27D5
:100FB000BB2708C0A20FB31FE41FF51F220F331F6A
:100FC000441F551F969587957795679598F37040C0
:100FD000A9F7009799F7BD01CF010895052E97FB5A
:100FE00016F400940FD057FD05D014D007FC02D0A2
:100FF00046F408C050954095309521953F4F4F4F8E
:101000005F4F089590958095709561957F4F8F4FB4
:101010009F4F0895A1E21A2EAA1BBB1BFD010DC014
:10102000AA1FBB1FEE1FFF1FA217B307E407F50798
:1010300020F0A21BB30BE40BF50B661F771F881F74
:10104000991F1A9469F760957095809590959B010A
:10105000AC01BD01CF01089597FB072E16F4009453
:1010600006D077FD08D00BD007FC05D03EF4909554
:1010700081959F4F0895709561957F4F0895AA1BA4
:10108000BB1B51E107C0AA1FBB1FA617B70710F073
:10109000A61BB70B881F991F5A95A9F780959095A5
:1010A000BC01CD010895EE0FFF1F0590F491E02DD6
:1010B000099410E0CEE2D0E003C0FE01F4DF2196F7
:0A10C000CF32D107D1F7F894FFCF2B
:1010CA00010000007EFF06000100000000EF0000A2
:0E10DA00000065021402C102D8023C02560258
:00000001FF
